{
  "transactions": [
    {
      "hash": "0xec63c4c9f247d73645a23380bf9e753879a860467d889edd1ffc8a86aed04329",
      "transactionType": "CALL",
      "contractName": null,
      "contractAddress": "0x779877a7b0d9e8603169ddbd7836e478b4624789",
      "function": "transferAndCall(address,uint256,bytes)",
      "arguments": [
        "0x9DdfaCa8183c41ad55329BdeeD9F6A8d53168B1B",
        "3000000000000000000",
        "0x121b5bf9d5e85e47e624c4547520129987b874d2807d842a5fa57a802e5e203d"
      ],
      "transaction": {
        "from": "0x48b2680068f311e7d777dc9502957325dae1df99",
        "to": "0x779877a7b0d9e8603169ddbd7836e478b4624789",
        "gas": "0x1c1ff",
        "value": "0x0",
        "input": "0x4000aea00000000000000000000000009ddfaca8183c41ad55329bdeed9f6a8d53168b1b00000000000000000000000000000000000000000000000029a2241af62c000000000000000000000000000000000000000000000000000000000000000000600000000000000000000000000000000000000000000000000000000000000020121b5bf9d5e85e47e624c4547520129987b874d2807d842a5fa57a802e5e203d",
        "nonce": "0x5f",
        "chainId": "0xaa36a7"
      },
      "additionalContracts": [],
      "isFixedGasLimit": false
    }
  ],
  "receipts": [
    {
      "status": "0x1",
      "cumulativeGasUsed": "0x22a79d7",
      "logs": [
        {
          "address": "0x779877a7b0d9e8603169ddbd7836e478b4624789",
          "topics": [
            "0xddf252ad1be2c89b69c2b068fc378daa952ba7f163c4a11628f55a4df523b3ef",
            "0x00000000000000000000000048b2680068f311e7d777dc9502957325dae1df99",
            "0x0000000000000000000000009ddfaca8183c41ad55329bdeed9f6a8d53168b1b"
          ],
          "data": "0x00000000000000000000000000000000000000000000000029a2241af62c0000",
          "blockHash": "0x788c64ff915ab49c2c010b88da7bdf8fae93256740457db4c6e3dbede2ebf095",
          "blockNumber": "0x8364b4",
          "blockTimestamp": "0x68592d44",
          "transactionHash": "0xec63c4c9f247d73645a23380bf9e753879a860467d889edd1ffc8a86aed04329",
          "transactionIndex": "0xa4",
          "logIndex": "0xcb",
          "removed": false
        },
        {
          "address": "0x779877a7b0d9e8603169ddbd7836e478b4624789",
          "topics": [
            "0xe19260aff97b920c7df27010903aeb9c8d2be5d310a2c67824cf3f15396e4c16",
            "0x00000000000000000000000048b2680068f311e7d777dc9502957325dae1df99",
            "0x0000000000000000000000009ddfaca8183c41ad55329bdeed9f6a8d53168b1b"
          ],
          "data": "0x00000000000000000000000000000000000000000000000029a2241af62c000000000000000000000000000000000000000000000000000000000000000000400000000000000000000000000000000000000000000000000000000000000020121b5bf9d5e85e47e624c4547520129987b874d2807d842a5fa57a802e5e203d",
          "blockHash": "0x788c64ff915ab49c2c010b88da7bdf8fae93256740457db4c6e3dbede2ebf095",
          "blockNumber": "0x8364b4",
          "blockTimestamp": "0x68592d44",
          "transactionHash": "0xec63c4c9f247d73645a23380bf9e753879a860467d889edd1ffc8a86aed04329",
          "transactionIndex": "0xa4",
          "logIndex": "0xcc",
          "removed": false
        },
        {
          "address": "0x9ddfaca8183c41ad55329bdeed9f6a8d53168b1b",
          "topics": [
            "0x1ced9348ff549fceab2ac57cd3a9de38edaaab274b725ee82c23e8fc8c4eec7a",
            "0x121b5bf9d5e85e47e624c4547520129987b874d2807d842a5fa57a802e5e203d"
          ],
          "data": "0x000000000000000000000000000000000000000000000000000000000000000000000000000000000000000000000000000000000000000029a2241af62c0000",
          "blockHash": "0x788c64ff915ab49c2c010b88da7bdf8fae93256740457db4c6e3dbede2ebf095",
          "blockNumber": "0x8364b4",
          "blockTimestamp": "0x68592d44",
          "transactionHash": "0xec63c4c9f247d73645a23380bf9e753879a860467d889edd1ffc8a86aed04329",
          "transactionIndex": "0xa4",
          "logIndex": "0xcd",
          "removed": false
        }
      ],
      "logsBloom": "0x00000004000000000000000000000000000000000020080000000000020000000000000000000000000000000000000000000000000000000000200000000000000000000000000000000008000000000000000000000000000020000020000008000080000000000000000000000000000000000000000000000010000040000000000000000000000000010000800000000020000000000000000000000000000001000000000000000000018000000000000000000000000004000000000000000002000000000000000000000000000000000000000100000000000000000010000000000000800020000000000000000000000000000000000000000000",
      "type": "0x2",
      "transactionHash": "0xec63c4c9f247d73645a23380bf9e753879a860467d889edd1ffc8a86aed04329",
      "transactionIndex": "0xa4",
      "blockHash": "0x788c64ff915ab49c2c010b88da7bdf8fae93256740457db4c6e3dbede2ebf095",
      "blockNumber": "0x8364b4",
      "gasUsed": "0x133b1",
      "effectiveGasPrice": "0x589f3b",
      "from": "0x48b2680068f311e7d777dc9502957325dae1df99",
      "to": "0x779877a7b0d9e8603169ddbd7836e478b4624789",
      "contractAddress": null
    }
  ],
  "libraries": [],
  "pending": [],
  "returns": {},
  "timestamp": 1750674758,
  "chain": 11155111,
  "commit": "0671a91"
}